:020000040800F2
:10000000080E002045010008850E0008290D000893
:10001000690E0008FD0600088D240008000000009D
:10002000000000000000000000000000BD130008F8
:10003000BB0A000800000000CD0F00085D010008A9
:100040005F0100085F0100085F0100085F01000810
:100050005F0100085F0100085F0100085F01000800
:100060005F0100085F0100085F0100085F010008F0
:100070005F0100085F010008610800085F010008D7
:100080005F010008910800085F010008572400087C
:10009000592400085F0100085F0100085F010008A3
:1000A0005F0100085F0100085F0100085F010008B0
:1000B000D11700085F0100085F0100085F01000818
:1000C0005F0100085F0100085F0100085F01000890
:1000D0005F010008C11D0008192100085F01000828
:1000E0005F0100085F0100085F0100085F01000870
:1000F0005F0100085F0100085F0100085F01000860
:100100005F0100083D1300085F0100085F0100085F
:100110005F0100085F0100085F0100085F0100083F
:100120005F0100085F0100085F0100085F0100082F
:10013000DFF80CD000F042FA00480047F12D00082B
:10014000080E00200648804706480047FEE7FEE705
:10015000FEE7FEE7FEE7FEE7FEE7FEE7FEE7FEE777
:10016000991600083101000840EA01039B0703D0FB
:1001700009E008C9121F08C0042AFAD203E011F8E6
:10018000013B00F8013B521EF9D2704730B50546DD
:100190002A460B4612F8010B13F8014B08B1A04296
:1001A000F8D01CB1002802D06D1CF1E7284630BD04
:1001B000421C10F8011B0029FBD1801A704730B592
:1001C0000B46014600202022012409E021FA02F515
:1001D0009D4205D303FA02F5491B04FA02F52844AF
:1001E000151EA2F10102F1DC30BD2DE9F05F0546DC
:1001F000002092469B4688460646814640241BE0E6
:10020000284641464746224600F0F9F953465A46E9
:10021000C01A914110D311461846224600F0E0F969
:100220002D1A67EB01084F4622460120002100F0FD
:10023000D7F917EB00094E41201EA4F10104DFDCC1
:10024000484631462A464346BDE8F09F2DE9FE4F19
:10025000804681EA0300C00F0C46009021F0004167
:1002600023F00045B8EB0200A94105D240462146E3
:1002700090461C460B46024623F00040104347D0F0
:10028000270DC7F30A00C3F30A510290401A0190E8
:1002900040286BDAC3F3130040F4801B00989246A9
:1002A00020B10023D2EB030A63EB0B0B01985946F4
:1002B000C0F14002504600F093F906460D46504604
:1002C0005946019A00F0ABF910EB08006141002497
:1002D00087EA115284EAE7731A4340D0009A62B366
:1002E000019A012A4FEA075215DC001B61EB02015B
:1002F0004FF0004202EA0752CDE90042001C41F5EE
:10030000801132462B4600F0ABF903B0BDE8F08F08
:1003100040462146F9E7001B61EB0201001C41F554
:10032000801300185B412018A2F5001747EB03016A
:1003300040EAD570B6196D4111E06D084FEA3606F6
:1003400045EAC0754FEA0752001B61EB0201001C31
:1003500041F5801149084FEA3000001951413246F9
:100360002B4603B0BDE8F04F00F06BB900980122B6
:1003700040000023D0EB020263EBE07300982146BB
:100380004FEAE074B8EB000061EB0401E9E783F0A9
:1003900000435BE781F0004158E72DE9FE4F81EA19
:1003A000030404F0004421F0004100944FF0000BDE
:1003B00023F0004350EA01045ED052EA03045BD00C
:1003C000C3F30A54C1F30A552C44A4F2F334019444
:1003D000A0FB0254C1F3130141F48011C3F31303D2
:1003E00043F4801301FB024400FB034E840A970A86
:1003F00044EA815447EA8357A4FB076802958D0AB3
:1004000005FB07854FEA932C04FB0C542705029D3E
:100410004FEA065847EA1637B5EB08056EEB070CAE
:10042000870E920E47EA811742EA8312A7FB020168
:10043000B6EB0B0164EB00042B0D43EA0C335E18A2
:1004400044EB1C50DA465146E7FB0201C5F31304A6
:100450004FEA0B3343EA14534FEA0432019C43EA58
:100460000603A4F10C040294009CCDE900B400F052
:10047000F7F803B0BDE8F08F00200146F9E72DE959
:10048000F04D81EA030404F0004B21F000451446CE
:100490004FF0000A23F0004150EA050220D054EA50
:1004A00001021DD0C5F30A570246C5F31303C1F379
:1004B0001300C1F30A5640F4801543F48013A7EBF0
:1004C0000608101BD64608F2FD3873EB050002D370
:1004D00008F1010801E092185B41B8F1000F03DA5E
:1004E00000200146BDE8F08D00204FF48011064643
:1004F00084460EE0171B73EB050705D3121B63EB55
:10050000050306434CEA010C49084FEA30009218F3
:100510005B4150EA0107EDD152EA030012D082EAB2
:10052000040083EA0501084305D0101BAB4106D245
:100530000122002306E000224FF0004302E06FF0AA
:10054000010253101AEB06004CEB085110EB0A00A5
:1005500041EB0B01BDE8F04D00F073B8C1F30A5256
:10056000C1F3130140F2FF3341F480119A4202DAE1
:1005700000200146704740F233439A42A2F23342D0
:1005800002DC524200F03BB800F02AB830B5041E3D
:1005900071F1000404DB4FF00044404264EB0101C0
:1005A000141E73F1000405DB1C464FF00043524259
:1005B00063EB0403994208BF904230BD064C074DDF
:1005C00006E0E06840F0010394E807009847103423
:1005D000AC42F6D3FFF7B0FDBC2F0008DC2F0008BB
:1005E000202A04DB203A00FA02F1002070479140F3
:1005F000C2F1200320FA03F3194390407047202AE8
:1006000004DB203A21FA02F00021704721FA02F3BC
:10061000D040C2F120029140084319467047202A79
:1006200006DBCB17203A41FA02F043EAE07306E01A
:1006300041FA02F3D040C2F120029140084319462A
:10064000704710B5141E73F1000408DA401C41F124
:10065000000192185B411A4301D120F0010010BD46
:100660002DE9F04D92469B4611B1B1FA81F202E0BC
:10067000B0FA80F220329046FFF7B2FF04460F46F0
:1006800040EA0A0041EA0B0153465A46084313D098
:10069000114653EA010019D0C8F140025046FFF755
:1006A000AEFF05460E46504659464246FFF798FFB4
:1006B000084305D0012004E020463946BDE8F08D0E
:1006C0000020054346EAE0762C4337430A98630549
:1006D000E40AA0EB08000022FD0A44EA47540A306D
:1006E00002D500200146E9E7010510196941DDE95D
:1006F000084500196941BDE8F04DA2E702E002A0FB
:1007000001F0D2FEFBE700000D0A2042757346613E
:10071000756C740010B515A001F006FC194801F0C5
:1007200003FC19A001F000FC184801F0FDFB18A023
:1007300001F0FAFB4FF47A721146002001F000FC40
:1007400014A11848FFF722FD68B94FF47A7241F2FC
:100750008831002001F0F4FB0EA11248FFF716FDCE
:1007600008B9002010BD0120FCE7000041542B43D4
:1007700049504F50454E3D302C22544350222C229C
:10078000000000004F000020222C0000610000202B
:100790000D0A00002B4349504F50454E3A20302C53
:1007A000300000000303002070B5002500BF4FF4A7
:1007B0007A72114617A001F0C3FB681CC5B218A1DC
:1007C0001A48FFF7E3FC30B919A11848FFF7DEFC1F
:1007D00008B91E2DEBDB002400BF4FF47A721146DE
:1007E00016A001F0ADFB601CC4B217A10F48FFF7C3
:1007F000CDFC30B917A10D48FFF7C8FC08B9322C61
:10080000EBDB1E2D03DA1E2C01DA012070BD002067
:10081000FCE7000041542B435245473F0D0A0000BE
:100820002B435245473A20312C350000030300206A
:100830002B435245473A20312C31000041542B4381
:10084000475245473F0D0A002B43475245473A2040
:10085000312C35002B43475245473A20312C31008B
:1008600010B54FF4005000F0EBF840B100228021A9
:10087000054801F016FD0021044800F02FF84FF460
:10088000704000F01DF810BD0038014044000240E7
:1008900010B54FF0007000F0D3F840B10022802175
:1008A000054801F0FEFC0021044800F017F84FF065
:1008B000706000F005F810BD004400408000024068
:1008C00000F0805111B10349086001E0024948601D
:1008D00070470000040402400000024021B1026899
:1008E00042F00102026004E002684FF6FE731A4013
:1008F0000260704701684FF6FE72114001600021EE
:10090000016041608160C1604B49884208D14A4919
:100910000839496841F00F01474A083A51608AE0B6
:1009200045491431884208D143490839496841F0A2
:10093000F001414A083A51607DE03F492831884240
:1009400008D13D490839496841F470613A4A083A8A
:10095000516070E038493C31884208D13649083945
:10096000496841F47041344A083A516063E03249C1
:100970005031884208D130490839496841F4702122
:100980002D4A083A516056E02B496431884208D11B
:1009900029490839496841F47001274A083A5160E9
:1009A00049E025497831884208D123490839496806
:1009B00041F07061204A083A51603CE01F4988428A
:1009C00006D1011F096841F00F01021F116032E0DA
:1009D0001A491431884208D11849091F096841F0A1
:1009E000F001164A121F116025E01449283188428F
:1009F00008D11249091F096841F470610F4A121F9A
:100A0000116018E00D493C31884208D10B49091F9B
:100A1000096841F47041094A121F11600BE007494F
:100A20005031884207D10549091F096841F47021F6
:100A3000024A121F11607047080002400804024079
:100A400001460020002201F0805313B1054B1A68C3
:100A500001E0054B1A6802EA01030BB1012000E036
:100A60000020704700040240000002401AB10368F1
:100A70000B43036002E003688B430360704710B5CB
:100A80000022026847F6F0739A430C6A8B6823438E
:100A90000C6923434C6923438C692343CC6923436A
:100AA0004C6A23438C6A23431A430260CB68436039
:100AB0000B6883604B68C36010BD70474FF4FA52F7
:100AC00000FB02F100BF0A1EA1F10101FBD170473A
:100AD0000549096821F01001034A116011460968AF
:100AE00001431160704700000020024001460020D1
:100AF000034A106800F03800084310607047000097
:100B0000002002402DE9F041024600250026002089
:100B100000230024002791F803C00CF00F0591F882
:100B200003C00CF0100CBCF1000F03D091F802C010
:100B30004CEA050591F800C0BCF1000F31D01468F3
:100B400000202BE04FF0010C0CFA00F3B1F800C0CC
:100B50000CEA03069E4220D183004FF00F0C0CFAE2
:100B600003F7BC4305FA03FC4CEA040491F803C004
:100B7000BCF1280F06D14FF0010C0CFA00FCC2F8B2
:100B800014C00AE091F803C0BCF1480F05D14FF042
:100B9000010C0CFA00FCC2F810C0401C0828D1D38C
:100BA0001460B1F800C0BCF1FF0F34DD54680020C0
:100BB0002EE000F1080C4FF0010808FA0CF3B1F830
:100BC00000C00CEA03069E4221D183004FF00F0CB7
:100BD0000CFA03F7BC4305FA03FC4CEA040491F851
:100BE00003C0BCF1280F05D100F1080C08FA0CF87D
:100BF000C2F8148091F803C0BCF1480F07D100F18E
:100C0000080C4FF0010808FA0CF8C2F81080401CDC
:100C10000828CED35460BDE8F0810000F0B50A4644
:100C2000002300240021002500F00046B6F1004F0B
:100C300002D11D4EF16901E01B4E7168C0F30345FE
:100C400083B200F44016B6F5401F08D121F0706160
:100C5000154E766826F07066134F7E6012E000F441
:100C60008016B6F5801F06D1032606FA05F4A143C7
:100C700041F0706106E0460D360103FA06F6B14315
:100C800041F0706122B1460D360103FA06F6314398
:100C900000F00046B6F1004F02D1034EF16101E0D1
:100CA000014E7160F0BD00000000014002460020CE
:100CB00093680B400BB1012000E0002070474161B8
:100CC000704701617047000010B5002220210248E2
:100CD00000F074F810BD000000080140F8B50446AB
:100CE000002500200090264600BF012002F055F8A4
:100CF00008E0684601F042F89DF8000009494855AF
:100D00006D1C264600F0A4F80028F2D1701E86B2B1
:100D100000F09EF80028E8D1002EE6DC01F0C8F8CB
:100D20002846F8BD0304002002E002A001F0BCFB4D
:100D3000FBE700000D0A20686172646661756C74DF
:100D40000000000010B500F0DBFF01F0D1F800F06A
:100D5000D3FC01F05FF910BD4AF6AA2001490860F2
:100D6000704700000030004001B502E00098401ECE
:100D7000009000980028F9D108BD000008B50121B5
:100D8000142000F045F90120ADF8000004208DF892
:100D9000030069460748FFF7B5FE4FF40050ADF871
:100DA000000004208DF8030069460348FFF7AAFEFF
:100DB00008BD0000000801400010014070B5054664
:100DC0000E46144631462846FFF770FFA0420DD16B
:100DD00042F21070FFF7C8FF31462846FFF766FF62
:100DE000A04201D1012070BD0020FCE70020FAE7FD
:100DF00008B50121082000F00BF92020ADF8000013
:100E000010208DF8030003208DF8020069460F487A
:100E1000FFF778FE0120ADF8000069460B48FFF7A8
:100E200071FE0220ADF8000069460848FFF76AFE2F
:100E300020210648FFF745FF01210448FFF741FF45
:100E400002210248FFF73DFF08BD0000000C0140F1
:100E500001488069704700008800002001488069CF
:100E600070470000A800002002E002A001F01CFB77
:100E7000FBE700000D0A204D656D4D616E616765F1
:100E800000000000704708B54FF4A06000F048F87B
:100E90001C208DF8000001208DF8010000208DF845
:100EA000020001208DF80300684600F001F808BD3B
:100EB00070B5002100230F22C47804B3154C2468B8
:100EC00004F4E064C4F5E064210AC1F10403CA40FB
:100ED000447804FA03F184781440214309010E4C4C
:100EE0000678A155047804F01F050124AC4005786C
:100EF0006D11AD0005F1E025C5F8004109E0047869
:100F000004F01F050124AC40044D0678761145F825
:100F1000264070BD0CED00E000E400E080E100E060
:100F200002490143024A1160704700000000FA05BF
:100F30000CED00E010B516E010200D49086040F6F9
:100F4000B830FFF7BBFD10200949091F086041F2C6
:100F50008830FFF7B3FD41F28830FFF7AFFD41F273
:100F60008830FFF7ABFDFFF7AFFE0028E4D010BDDF
:100F70001408014010B54FF4FA70FFF79FFD1EE012
:100F80001020114908604FF4FA70FFF797FD102008
:100F90000D49091F086041F28830FFF78FFD41F2CB
:100FA0008830FFF78BFD41F28830FFF787FD41F273
:100FB0008830FFF783FD41F28830FFF77FFDFFF7B0
:100FC00083FE0028DCD110BD1408014070470000EA
:100FD00029B1064A52690243044B5A6104E0034AAC
:100FE00052698243014B5A61704700000010024071
:100FF00029B1064AD2690243044BDA6104E0034A8C
:10100000D2698243014BDA61704700000010024050
:1010100029B1064A92690243044B9A6104E0034AEB
:1010200092698243014B9A617047000000100240B0
:1010300010B500F047F84FF4803000F005F900F0EB
:1010400061F90446012C28D1002000F0F1F80020BD
:1010500000F02CF9A00200F01DF90220FFF746FD78
:101060001020FFF735FD4FF4E011200400F030F9B7
:10107000012000F027F900BF392000F0B3F8002864
:10108000FAD0022000F032F900BF00F0C9F80828B9
:10109000FBD100200949087002E0012007490870CF
:1010A00001210846FFF7A4FF01210D20FFF7B0FF43
:1010B00001210348FFF7B2FD10BD0000D40000205D
:1010C000000230000F48006840F001000D49086040
:1010D000084640680C4908400A49486008460068CC
:1010E0000A490840074908600846006820F4802043
:1010F00008600846406820F4FE0048604FF41F0076
:1011000088607047001002400000FFF8FFFFF6FE05
:1011100030B500210022002400232D4D6D6805F01C
:101120000C0121B1042905D0082923D105E0294D5E
:10113000056022E0274D05601FE0254D6D6805F430
:101140007012234D6D6805F48034022505EB924240
:101150001CB9214D554305600BE01D4D6D6805F42C
:1011600000351DB11C4D5543056002E0194D554336
:10117000056002E0174D056000BF00BF144D6D68AB
:1011800005F0F0010909154D6B5C0568DD4045600F
:101190000F4D6D6805F4E061090A104D6B5C456800
:1011A000DD4085600A4D6D6805F46051C90A0B4D3C
:1011B0006B5C4568DD40C560054D6D6805F44041D8
:1011C000890B074D6B5CC568B5FBF3F5056130BD58
:1011D0000010024000127A0000093D0000000020CB
:1011E0001000002010B501460022002300204A1103
:1011F000012A02D1094C236806E0022A02D1074CD9
:10120000236A01E0054C636A01F01F020124944047
:101210001C400CB1012000E0002010BD0010024075
:101220000248406800F00C007047000000100240C7
:1012300001460020034A506820F0F0000843506047
:1012400070470000001002401149096821F4803104
:101250000F4A11601146096821F480211160B0F530
:10126000803F03D0B0F5802F0ED106E00849096811
:1012700041F48031064A116007E00549096841F4EC
:10128000A021034A116000E000BF00BF70470000CA
:101290000010024001460020034A506820F4E0603C
:1012A00008435060704700000010024001460020D3
:1012B000034A506820F4605040EAC1005060704713
:1012C00000100240014908667047000000004242D9
:1012D00002460020044B586820F47C1042EA0103C7
:1012E0001843014B5860704700100240014600202F
:1012F000034A506820F00300084350607047000024
:101300000010024038B5002000900024002500BFE6
:101310003120FFF767FF05460098401C00900098B9
:10132000B0F5A06F01D0002DF2D03120FFF75AFFA9
:1013300008B1012400E00024204638BD70470000B9
:1013400008B501211C20FFF763FE2020ADF8000046
:1013500028208DF8030069461048FFF7D3FB1020C2
:10136000ADF800008DF8030069460C48FFF7CAFB92
:1013700010210A48FFF7A5FC4FF48070ADF800007B
:1013800010208DF8030069460548FFF7BBFB4FF4BA
:1013900080710348FFF793FC08BD0000000801407E
:1013A000000C014010B5FFF7D7FCFFF7C3FD40F676
:1013B000B830FFF783FBFFF7DDFD10BD704710B5B8
:1013C00000F002F810BD00000CB500200190009064
:1013D0003348006840F480303149086000BF30482D
:1013E000006800F4003000900198401C01900098C3
:1013F00018B90198B0F5A06FF1D12948006800F440
:10140000003010B10120009001E000200090009811
:10141000012843D12348006840F0100021490860AA
:101420000846006820F0030008600846006840F0A5
:10143000020008601A484068194948600846406838
:1014400048600846406840F480604860084640684C
:1014500020F47C1048600846406840F4E81048607A
:101460000846006840F08070086000BF0C480068C3
:1014700000F000700028F9D00948406820F003000F
:10148000074948600846406840F00200486000BFD5
:101490000348406800F00C000828F9D10CBD00009A
:1014A000001002400020024070B500240025FFF724
:1014B00061FD41F28830FFF701FB4FF47A7211466B
:1014C00036A000F03DFD4FF47A72114635A000F0D1
:1014D00037FD4FF47A72114636A000F031FD4FF41B
:1014E0007A72114637A000F02BFD4FF47A72114644
:1014F00037A000F025FD4FF47A72114637A000F0B6
:101500001FFD4FF47A72114637A000F019FD4FF419
:101510007A72114637A000F013FD4FF47A7211462B
:1015200037A000F00DFD4FF47A72510038A000F0A2
:1015300007FDFFF739F908B9002070BD4FF47A7242
:1015400042F2107135A000F0FBFC4FF47A721146A4
:1015500036A000F0F5FC4FF47A7242F2107136A01A
:1015600000F0EEFC4FF47A7211463BA000F0E8FC6C
:101570004FF47A7211463DA000F0E2FC4FF47A720B
:1015800011463EA000F0DCFC4FF47A7211463FA0F9
:1015900000F0D6FCFFF7BEF80120CEE741544531FC
:1015A0000D0A000041542B4353434C4B3D300D0A70
:1015B0000000000041542B43464752493D300D0A7C
:1015C0000000000041542B4353510D0A000000005D
:1015D00041542B4350494E3F0D0A000041542B43C8
:1015E0005245473F0D0A000041542B435245473DA9
:1015F000310D0A0041542B43475245473F0D0A0025
:1016000041542B43475245473D310D0A000000002D
:1016100041542B4349434349440D0A0041542B4351
:10162000474154543D310D0A0000000041542B4302
:10163000474143543F0D0A0041542B4347534F4306
:101640004B434F4E543D312C224950222C223347DC
:101650004E4554220D0A000041542B43534F434B37
:10166000534554504E3D310D0A00000041542B4368
:1016700049504D4F44453D300D0A000041542B4E1A
:1016800045544F50454E0D0A0000000041542B496F
:1016900050414444520D0A0010B51348006840F010
:1016A00001001149086008464068104908400E4989
:1016B0004860084600680E4908400B490860084623
:1016C000006820F4802008600846406820F4FE008E
:1016D00048604FF41F008860FFF771FE4FF0006014
:1016E0000449086010BD0000001002400000FFF82F
:1016F000FFFFF6FE08ED00E000B587B04FF6FF7083
:10170000ADF814000020ADF81000ADF81600ADF8EB
:10171000120004A94FF0804000F0A0FA012241F627
:101720001F41900700F08DFA0020ADF80000012065
:10173000ADF802000020ADF8080021480088ADF89F
:10174000060069464FF0804000F020F91D480088EF
:10175000ADF8060069464FF0804000F06DF91A4878
:101760000088ADF8060069464FF0804000F0C4F9EB
:1017700016480088ADF8060069464FF0804000F03A
:1017800015FA00214FF0804000F04CF900214FF095
:10179000804000F0A3F900214FF0804000F0FCF9F8
:1017A00000214FF0804000F03FFA01221E219007F7
:1017B00000F0E3F80121880700F0B5F807B000BD9C
:1017C000CC000020CE000020D0000020D20000205D
:1017D00008B5002000900221480700F0BDF800285D
:1017E0003DD042480088401E404908800846008895
:1017F00028B93F480088088001203E4908703E48CB
:101800000088401E3C4908800846008828B93B48AB
:101810000088088001203A4908703A480088401E34
:10182000384908800846008828B937480088088069
:101830000120364908704FF0804000F080F8009099
:10184000BDF80000324A1288104481B24FF0804047
:1018500000F0FAF90221480700F062F844E00421A0
:10186000080700F079F898B14FF0804000F06AF86E
:101870000090BDF80000274A1288104481B24FF052
:10188000804000F0E3F90421080700F049F82BE05C
:101890000821C80600F060F898B14FF0804000F0D1
:1018A00054F80090BDF800001B4A1288104481B221
:1018B0004FF0804000F0CCF90821C80600F030F865
:1018C00012E04FF0804000F043F80090BDF80000B7
:1018D000124A1288104481B24FF0804000F0BAF9E9
:1018E0001021880600F01CF808BD000074000020DC
:1018F0006E0000201F0000207600002070000020F5
:101900001A00002078000020720000201B00002038
:10191000CC000020CE000020D0000020D20000200B
:10192000CA430282704721B1028842F0010202805C
:1019300004E002884FF6FE731A40028070470146A9
:10194000888E70470146088F70470146888F704720
:101950000146B1F84000704730B502460020002330
:101960000024158A05EA0103958905EA010413B1EB
:101970000CB1012000E0002030BD1AB183890B4377
:10198000838102E083898B438381704770B5002493
:1019900000220023058C4FF6FE7635400584028C2C
:1019A0008388048B4FF68F752C40B51E2C400D8814
:1019B0002C43751E2A400D892A434D882A43144D15
:1019C000A8420BD0134DA84208D0134DA84205D011
:1019D000124DA84202D0124DA84213D14FF6F7750E
:1019E0002A404D892A434FF6FB752A408D882A43A9
:1019F0004FF6FF652B404FF6FF552B408D892B434B
:101A0000CD892B4383800483CD888586028470BD75
:101A1000002C0140003401400040014000440140DE
:101A2000004801400A460021018B4FF6F773194028
:101A3000114301837047000070B500240022002389
:101A4000058C4FF6EF7635400584028C8388048B35
:101A500048F6FF752C404FF6FF452C400D884FF699
:101A6000FF7606EA05252C434FF6DF752A400D89DF
:101A700006EA05152A434D8806EA05152A43154D41
:101A8000A84202D0144DA8421DD14FF67F752A40BE
:101A90004D894FF6FF7606EA05152A434FF6BF75C6
:101AA0002A408D8806EA05152A434FF6FF352B405C
:101AB0004FF2FF752B408D8906EA85052B43CD89B2
:101AC00006EA85052B4383800483CD88058702843D
:101AD00070BD0000002C0140003401400A46002186
:101AE000018B4FF2FF7319404FF6FF7303EA022395
:101AF000194301837047000070B5002400220023C1
:101B0000058C4FF6FF6635400584028C8388848BF4
:101B10004FF68F752C404FF6FC752C400D882C43EA
:101B20004FF6FF552A400D894FF6FF7606EA052548
:101B30002A434D8806EA05252A43154DA84202D0BE
:101B4000144DA8421DD14FF2FF752A404D894FF622
:101B5000FF7606EA05252A434FF6FF352A408D8891
:101B600006EA05252A434EF6FF752B404DF6FF7514
:101B70002B408D8906EA05152B43CD8906EA05150C
:101B80002B4383808483CD888587028470BD0000C9
:101B9000002C0140003401400A460021818B4FF6A1
:101BA000F7731940114381837047000070B500221C
:101BB00000230024058C4EF6FF7635400584038C07
:101BC0008488828B48F6FF752A404FF6FF452A40ED
:101BD0000D884FF6FF7606EA05252A434DF6FF7578
:101BE0002B400D8906EA05352B434D8806EA05355D
:101BF0002B430B4DA84202D00A4DA84208D14BF608
:101C0000FF752C408D894FF6FF7606EA85152C432B
:101C100084808283CD88A0F84050038470BD00008A
:101C2000002C0140003401400A460021818B4FF214
:101C3000FF7319404FF6FF7303EA022319438183B0
:101C4000704701858282704781867047018770479F
:101C500081877047A0F8401070470000002202887A
:101C60001D4B98420ED01D4B98420BD0B0F1804FC7
:101C700008D01B4B984205D01A4B984202D01A4B01
:101C8000984204D14FF68F731A404B881A43174B72
:101C9000984207D0164B984204D04FF6FF431A40A3
:101CA000CB881A4302808B8883850B8803850A4B77
:101CB00098420BD0094B984208D00E4B984205D061
:101CC0000D4B984202D00D4B984201D10B7A0386FE
:101CD0000123838270470000002C01400034014042
:101CE0000004004000080040000C004000100040CC
:101CF0000014004000400140004401400048014001
:101D000010B500F0A3F800F017F800F0BDF800F0EF
:101D1000DBF840F22551074800F0A8FA012240F212
:101D20002551044800F0FDFA0121024800F0ADFA07
:101D300010BD00000038014008B501210420FFF764
:101D400067F94FF40070ADF8000018208DF803001B
:101D500003208DF8020069460748FEF7D3FE4FF4D2
:101D60008060ADF8000004208DF803006946024849
:101D7000FEF7C8FE08BD00000008014001460F48FC
:101D80008069C0B10D480069007808700B4800698F
:101D9000401C0A4A1061104600699268904203D9BB
:101DA00006484068054A106104488069401E034A9D
:101DB0009061012070470020FCE7000088000020AF
:101DC00010B540F225511E4800F081FA012826D1B5
:101DD00040F225511A4800F049FA194800F032FB48
:101DE0001849087018488069FF2828D81648C06824
:101DF00015498968884203D9134840681249C86068
:101E0000104800781049C96808700F48C068401C25
:101E10000D49C86008468069401C88610FE04FF496
:101E20005871074800F046FA012803D1044800F031
:101E300009FB04E040F22771014800F048FA10BDA8
:101E40000038014084000020880000201FB50121D7
:101E50008803FFF7DDF80A48006800900020ADF81D
:101E60000400ADF80600ADF80800ADF80C000C2039
:101E7000ADF80A006946034800F078FA1FBD00007B
:101E8000880000200038014008B54FF4A060FFF73B
:101E900047F825208DF8000000208DF80100012072
:101EA0008DF802008DF803006846FFF701F808BDC1
:101EB000044840680349C86008464068086100203B
:101EC0008861704788000020074808494860FF3053
:101ED000886008464068C860084640680861024853
:101EE00048610020886170470306002088000020B8
:101EF00010B500F057F900F0CDF800F071F900F0DE
:101F000091F940F22551074800F0B0F9012240F262
:101F10002551044800F005FA0121024800F0B5F906
:101F200010BD00000044004010B5044603E014F862
:101F3000010B00F08BF920780028F8D110BD0000CB
:101F40002DE9F84F80460D4616464FF00009002453
:101F50000020009000F08EFA00F058F9B8F1000F60
:101F600007D04046FEF724F982465146404600F02D
:101F700035F800BF681E85B20120FEF79FFDFEF711
:101F80006DFF08B9002DF5DC374600BF0120FEF7D4
:101F900095FD08E0684600F09DF89DF800000E49A8
:101FA0000855641C3746FEF759FF0028F2D1781E09
:101FB00087B2FEF753FF0028E8D1002FE6DC00F0DF
:101FC00025F94FF0000901E009F10109A145FBDB0A
:101FD0002046BDE8F88F00000303002070B50546D9
:101FE0000C46224629460848FEF7BEF8074804601A
:101FF00001228021064800F054F901210348001F06
:10200000FEF76CFC70BD0000030900208400024054
:102010000044004000B58DB001210846FEF7D8FF0E
:102020004FF4A060FEF77CFF11208DF830000020F7
:102030008DF8310003208DF8320001208DF8330037
:102040000CA8FEF735FF1048FEF754FC0F4801902E
:102050000F480290102003900020059080200690E9
:1020600000200790089009904FF440500A900020FB
:102070000B9001A90448FEF702FD0122022102484B
:10208000FEF7F4FC0DB000BD8000024004440040A7
:102090000309002008B501210420FEF7B9FF042040
:1020A000ADF8000018208DF8030003208DF8020021
:1020B00069460748FEF726FD0820ADF80000042019
:1020C0008DF8030069460248FEF71CFD08BD0000BC
:1020D0000008014001460F488069C0B10D48006901
:1020E000007808700B480069401C0A4A10611046CD
:1020F00000699268904203D906484068054A106119
:1021000004488069401E034A906101207047002006
:10211000FCE70000A800002010B540F225511E4841
:1021200000F0D5F8012826D140F225511A4800F0D8
:102130009DF8194800F086F9184908701848806918
:10214000FF2828D81648C06815498968884203D9ED
:10215000134840681249C860104800781049C9689F
:1021600008700F48C068401C0D49C8600846806967
:10217000401C88610FE04FF45871074800F09AF84E
:10218000012803D1044800F05DF904E040F2277112
:10219000014800F09CF810BD00440040A40000205D
:1021A000A80000201FB501214804FEF721FF0A48BE
:1021B000006800900020ADF80400ADF80600ADF80E
:1021C0000800ADF80C000C20ADF80A006946034881
:1021D00000F0CCF81FBD0000A80000200044004023
:1021E00008B54FF4A060FEF79BFE26208DF8000096
:1021F00000208DF8010002208DF8020001208DF8EA
:1022000003006846FEF754FE08BD0000044840681D
:102210000349C8600846406808610020886170472B
:10222000A8000020074808494860FF308860084639
:102230004068C8600846406808610248486100205C
:102240008861704703080020A800002010B50446EC
:102250002146054800F0FBF800BF8021024800F04D
:1022600029F80028F9D010BD0044004010B5002224
:10227000002340F66A14A14200D100BF0A120124D3
:102280009440A3B2DC43048010BD21B1828942F4A2
:102290000052828104E082894DF6FF731A408281E8
:1022A00070471AB1838A0B43838202E0838A8B438F
:1022B0008382704702460020B1F5007F00D100BF45
:1022C00013880B400BB1012000E00020704770B56F
:1022D0000246002400230025002040F66A16B14281
:1022E00000D100BFC1F3421501F01F03012606FA19
:1022F00003F3012D02D19689334006E0022D02D16D
:10230000168A334001E0968A33400C12012606FA01
:1023100004F41688344013B10CB1012000E0002011
:1023200070BDF0B50346002400260025002040F6CD
:102330006A17B94200D100BF1846C1F3421401F038
:102340001F06012707FA06F5012C01D10C3004E025
:10235000022C01D1103000E014301AB107682F436D
:10236000076002E00768AF430760F0BD2DE9F04762
:1023700086B005460E460024A24600BFA1460027AF
:10238000B08900B100BF2F462C8A4CF6FF70044084
:10239000F08804432C82AC894EF6F3100440B088D8
:1023A00031890843718908430443AC81AC8A4FF6F4
:1023B000FF400440B0890443AC8201A8FEF7A8FEA8
:1023C0001F48874202D1DDF810A001E0DDF80CA023
:1023D000A88900F4004040B10AEBCA0000EB0A10E3
:1023E00031684900B0FBF1F807E00AEBCA0000EBE6
:1023F0000A1031688900B0FBF1F86420B8FBF0F0F6
:1024000004012009642101FB1089A88900F400401F
:1024100040B1322000EBC900B0FBF1F000F0070042
:10242000044308E0322000EB09106421B0FBF1F016
:1024300000F00F0004432C8106B0BDE8F0870000D7
:102440000038014001468888C0F308007047C1F396
:10245000080282807047704770470000002004E047
:102460000021034A1154411C88B2FF28F8DD70474F
:1024700003040020002004E00021034A1154411C01
:1024800088B2FF28F8DD70470303002002E002A0B5
:1024900000F00AF8FBE700000D0A2055736167653C
:1024A0004661756C740000000FB4054B10B503A9AC
:1024B000044A029800F0DAF810BC5DF814FB000042
:1024C000B92D0008C800002002E008C8121F08C18A
:1024D000002AFAD170477047002001E001C1121FA5
:1024E000002AFBD1704700002DE9FF5F82B0002178
:1024F000DDE90430020DDDF840B0034318D044F6A6
:102500001050A2F2FF3242431514119801281FD037
:10251000A5EB0B00401C5FEA000A4FF000064E4F8F
:10252000DFF83891B046504615D5CAF1000413E0E3
:10253000119801244AA3012801D16FEA0B010298E6
:10254000119AC0E90031C0E9024206B0BDE8F09F2F
:10255000CBF10000DFE704460021404A491842EB76
:102560000450CDE9001012E0E00707D032463B46A8
:1025700040464946FDF711FF8046894632463B46B4
:1025800010461946FDF709FF06460F466410002C59
:10259000EAD1DDE90401DDE90023BAF1000F06DA32
:1025A000FDF7FBFE42464B46FDF7F7FE05E0FDF763
:1025B00066FF42464B46FDF762FF04460E46002288
:1025C000284BFDF7E3FF03D84FF0FF30014607E04B
:1025D0000022254B20463146FDF738FEFDF7BEFFB1
:1025E000102409E0002C0ADB0A220023FDF7FDFD80
:1025F000039B30321A55641E50EA0102F2D1641C6A
:10260000039AC4F111031444119A012A03D0012240
:1026100008430DD10AE0084304D000204FF0110B0D
:10262000119072E7A3EB0B056D1E0DE05B4504DD19
:102630004FF0000205F1010504E003DA4FF000025B
:10264000A5F10105002AECD002981199C0E90231E8
:10265000C0E9004579E70000000014400000F03FA9
:10266000300000000000F0430000E03F2DE9FF4F84
:1026700095B09B468946064600250FE2252877D16E
:1026800000242746F84A0121059400E0044316F887
:10269000013F203B01FA03F01042F7D130782A289D
:1026A00011D06FF02F033078A0F13002092A16D82C
:1026B000059A44F0020402EB820203EB420210444A
:1026C000761C0590EFE759F8042B0592002A03DAEF
:1026D000504244F40054059044F00204761C3078D3
:1026E0002E2816D116F8010F44F004042A280DD024
:1026F0006FF02F023078A0F13003092B09D807EBD7
:10270000870302EB4303C718761CF3E759F8047BF1
:10271000761C30786C280FD006DC4C2817D068283F
:102720000DD06A2814D104E0742810D07A280FD173
:102730000DE044F400140AE044F4801401E044F491
:1027400040147278824202D104F58014761C761C03
:10275000307866280BD013DC582877D009DC0028A5
:1027600075D04528F6D04628F4D047281AD19DE1E7
:1027700018E0632835D0642879D0652812D195E116
:10278000702873D008DC6728F1D069286FD06E28D4
:102790000DD06F2806D1B5E073282CD0752875D0E0
:1027A000782874D05A46179990476D1C75E1C4F388
:1027B0000250022809D003280DD0D9F800100428AF
:1027C0000DD00D6009F1040967E1D9F80010EA178E
:1027D000C1E90052F6E7D9F800100D80F2E70D705C
:1027E000F0E719F8041B8DF8001000208DF80100A7
:1027F000EA46012003E059F804AB4FF0FF306107CF
:102800004FF0000102D40DE008F101018846B94201
:102810000FDA8045F8DB1AF808100029F4D108E037
:1028200008F1010188468142FADB1AF808100029F4
:10283000F6D105985B46A0EB080721463846179A63
:1028400000F094FA284400EB080507E04DE029E188
:102850000DE01AF8010B5A4617999047B8F1010894
:10286000F7D25B4621463846179A13E142E00A2226
:102870000092C4F302524FF0000A022A08D059F81D
:1028800004CB032A4FEAEC710AD00DE029E02AE0DC
:1028900009F1070121F00702F2E802C1914609E0BF
:1028A0000FFA8CFC4FEAEC71042A03D14FFA8CFC2E
:1028B0004FEAEC71002907DA0A460021DCF1000C2E
:1028C00061EB02012D2202E0220504D52B228DF8B6
:1028D0000420012203E0E20701D02022F7E790461E
:1028E00059E00A2102E010220DE010214FF0000A09
:1028F00000910BE010224FF0000A44F00404082776
:10290000009203E008224FF0000A0092C4F3025242
:10291000022A05D059F804CB0021032A08D009E087
:1029200009F1070121F00702F2E802C1914605E032
:102930001FFA8CFC042A01D10CF0FF0C4FF00008A8
:10294000220728D5702806D0009B83F0100353EA95
:102950000A0305D00EE040228DF80420012208E091
:102960005CEA010206D030228DF804208DF80500C3
:1029700002229046009B83F0080353EA0A030AD11F
:102980005CEA010201D1620705D530228DF80420EE
:102990004FF001087F1E582804D034A003900EA8E1
:1029A00002900DE036A0F9E753466046009AFDF725
:1029B0001CFC84460398825C0298401E02900270C0
:1029C0005CEA0100F0D1029806A9081A00F1200A79
:1029D000600702D524F4803400E00127574502DD6A
:1029E000A7EB0A0000E0002000EB0A010090059828
:1029F0004144401A0590E00306D45B462146179AED
:102A0000059800F0B3F90544002706E001A85A46EE
:102A1000C05D179990476D1C7F1C4745F6DBE003AE
:102A20000CD55B462146179A059800F09FF905449E
:102A300004E030205A46179990476D1C0099481EB3
:102A400000900029F5DC08E0029802995A460078C7
:102A5000491C0291179990476D1CBAF10001AAF127
:102A6000010AF1DC65E10000092801003031323350
:102A700034353637383961626364656600000000BA
:102A800030313233343536373839414243444546A4
:102A90000000000000F058F90544761C307800284A
:102AA0007FF4ECAD19B02846BDE8F08F620700D482
:102AB000062709F1070222F0070CFCE80223E14691
:102AC00003F000485FEA080C02D00FF2702C0DE012
:102AD0005FEA045C02D50FF2682C07E05FEAC47C71
:102AE00002D00FF2602C01E0AFF2700C4FF0FF3813
:102AF00023F00043CDF850C065280CD006DC4528F3
:102B000009D046281DD047283DD13DE0662818D081
:102B100067287ED138E00021112F01DB112000E071
:102B2000781CCDE9000106A90EA8FFF7DDFCDDE960
:102B30000F010E9A03910021009207F1010A0491FE
:102B40004DE04FF000400097CDE9011006A90EA816
:102B5000FFF7CAFCDDE90F0203920E9B11990022D8
:102B6000DDF80CA00093049211B9791C00EB010A66
:102B7000B7EB0A0004D4C0F1FF3007F1010A04905A
:102B8000AAEB0700019044E0012F00DA01270021A1
:102B9000112F01DD112000E03846CDE9000106A922
:102BA0000EA8FFF7A1FCDDE90F010E9A03910021A9
:102BB00004910092BA4621070CD40399514500DADA
:102BC0008A46BAF1010F05DD009AAAF10101515CB4
:102BD000302908D0B84202DA10F1040F06DA0121D8
:102BE000CDE9011015E0AAF10101E9E7002805DCB3
:102BF000049901440491AAEB000102E0411C5145F3
:102C000000DD8A460499401A401C01904FF00040B4
:102C10000290200704D40198504501DBCDF80480D0
:102C200000208DF84F0002980DF14F07B0F1004FD2
:102C300025D02B200E9002984FF0020800280CDAC5
:102C4000404202902D200E9007E00A210298FDF7E5
:102C5000B6FA3031029007F8011DB8F10001A8F171
:102C60000108F2DC02980028EFD1791E0E98087056
:102C7000307800F0200040F0450007F8020D12A85F
:102C8000C01B00F107081498007800B1012000EB88
:102C90000A01019801EBE07105984144401A401E79
:102CA0000590E00306D45B462146179A059800F08C
:102CB0005DF805441498007818B15A461799904762
:102CC0006D1CE00324D55B462146179A059800F059
:102CD0004DF805441CE00498002807DBDDE90301FA
:102CE000884203DD0098405C179901E01799302075
:102CF0005A469047049805F10105401C049001983C
:102D0000401E019004D12E205A46179990476D1C01
:102D1000BAF10001AAF1010ADDDC05E017F8010BA8
:102D20005A46179990476D1CB8F10001A8F10108A7
:102D3000F4DC5B462146179A0598ABE62D000000AF
:102D40002B000000200000002DE9F0410446002582
:102D50001E461746880404D405E039462020B047B3
:102D60006D1C641EF9D52846BDE8F0812DE9F041BF
:102D7000044600251E469046C80301D5302700E0D2
:102D80002027880404D505E041463846B0476D1C2D
:102D9000641EF9D52846BDE8F081014606E0002012
:102DA00001E0421C90B2B0F5FA5FFADB0A1EA1F115
:102DB000010399B2F3D1704770B504460D4600BFC8
:102DC00080210A480068FFF775FA0028F8D0E0B2C1
:102DD00006490968888000BF04480068008800F040
:102DE00040000028F8D0204670BD0000C40000203C
:102DF00000BF00BF00BF0025FEF71AF9FEF743F839
:102E0000FDF7F6FFFDF7BAFFFEF79AFAFDF79AFF16
:102E100001E0FEF7C7FAFEF747FB0028F9D0FFF7FD
:102E20001DFBFFF745F88CE0202046490860012093
:102E3000091F08600220086000BF04E0FFF70EFBD6
:102E40000A20FDF74BFFFEF703F80028F6D1012218
:102E500011463D48FDF7B2FF012801D13B490870FA
:102E60003A48007801286CD120203649091F0860B3
:102E70000120091D08600220091F08604FF47A72C2
:102E8000114633A0FFF75CF836A13748FDF77EF90D
:102E9000B8B1002405E03549085DFFF7D7F9601C9B
:102EA000C4B20B2CF7DB1A20FFF7D0F9002027491A
:102EB000087000254FF47A7242F21071FFF740F863
:102EC00032E02BA12848FDF761F900282CD0681CBE
:102ED000C5B2032D08D1002501E0FEF763FAFEF725
:102EE000E3FA0028F9D01FE04FF47A72114623A0CC
:102EF000FFF726F825A11C48FDF748F990B144F6E4
:102F0000206240F6B83125A0FFF71AF827A116482D
:102F1000FDF73CF930B943F698224FF47A7100205E
:102F2000FFF70EF8FDF7F6FBFFF798FAFEF7C0FF84
:102F300020200449091F0860012008600220091DA3
:102F4000086071E7140C0140000801406B0000208C
:102F500041542B43495053454E443D302C31310DA3
:102F60000A0000003E0000000303002003040020CC
:102F70002B4349504552524F523A000041542B4383
:102F80004950434C4F53453F0D0A00002B434950D5
:102F9000434C4F53453A20310000000041542B432D
:102FA0004950434C4F53453D300D0A002B43495087
:102FB000434C4F53453A20302C300000DC2F0008A2
:102FC00000000020D8000000C8240008B430000829
:102FD000D8000020300D0000D824000800000000B8
:102FE000010203040102030406070809020406089B
:102FF00000000000000000000000000054453030D8
:10300000353A003030303030303030003000303041
:1030100030302E303030300030303030302E3030E4
:1030200030300030303000454E4400706F736974AA
:10303000696F6E2E6965676F2E6E65740031303072
:103040003031000000000000000001000A00010013
:10305000010001000100010000000000000000006C
:1030600000000000B00400000000000000000000AC
:103070000000000000000000000000000000000050
:103080000000000000C2010000000000000000007D
:103090000000000000000000000000000000000030
:1030A00000000000000000001027F4016400E803A5
:0430B000000000001C
:0400000508000131BD
:00000001FF
